:100000000C9487000C94A6000C94A6000C94A600F7
:100010000C94A6000C94A6000C94A6000C94A600C8
:100020000C94A6000C94A6000C94A6000C94A600B8
:100030000C94A6000C94A6000C94A6000C94A600A8
:100040000C94A6000C94A6000C94A6000C94A60098
:100050000C94A6000C94A6000C94A6000C94A60088
:100060000C94A6000C94A6000C94A6000C94A60078
:100070000C94A6000C94A6000C94A6000C94A60068
:100080000C94A6000C94A6000C94A60007634236BC
:10009000B79BD8A71A39685618AEBAAB558C1D3C19
:1000A000B7CC5763BD6DEDFD753EF6177231BF00DD
:1000B0000000803F08000000BE922449123EABAA17
:1000C000AA2ABECDCCCC4C3E00000080BEABAAAA72
:1000D000AA3E00000000BF000000803F00000000BA
:1000E00000084178D3BB4387D1133D190E3CC3BDF3
:1000F0004282AD2B3E68EC8276BED98FE1A93E4CA0
:1001000080EFFFBE01C4FF7F3F000000000011240C
:100110001FBECFEFD0E1DEBFCDBF12E0A0E0B1E067
:10012000E2E2FBE700E00BBF02C007900D92AA3AA3
:10013000B107D9F713E0AAEAB2E001C01D92A036D8
:10014000B107E1F70E94C0000C9488390C940000BC
:1001500080E487B986E886B9089597B18770892BBE
:1001600087B9369A349BFECF349A24B135B1C90190
:100170000895DF93CF93CDB7DEB7CF91DF91089588
:100180008F929F92AF92BF92CF92DF92EF92FF92A7
:100190000F931F93DF93CF93CDB7DEB72A970FB698
:1001A000F894DEBF0FBECDBF8FEF87BB11BA82BB05
:1001B00088BB0E94A800DE011196E4E3F1E08AE02A
:1001C00001900D928150E1F720E030E040E050E0F6
:1001D00020932E0330932F03409330035093310329
:1001E0002093320330933303409334035093350309
:1001F00080E090E0A0EAB0E480932A0390932B0380
:10020000A0932C03B0932D03209336033093370330
:10021000409338035093390320933E0330933F03B8
:10022000409340035093410380E090E0A0E8BFE397
:100230008093420390934303A0934403B0934503F8
:1002400080E090E0A0E8B0E48093460390934703F9
:10025000A0934803B093490380E091E061E04CE053
:1002600051E023E331E08E010F5F1F4FE1E0EE2EFE
:10027000F12C71E0C72ED12C0E940D08892BA9F416
:1002800081E090E02A960FB6F894DEBF0FBECDBF96
:10029000CF91DF911F910F91FF90EF90DF90CF9062
:1002A000BF90AF909F908F9008950F2EF0E0AF2EEB
:1002B000F0E0BF2EF0E0CF2EF0E0DF2EF02D80E555
:1002C000882E83EC982E80E00E94AD00A0E0B0E084
:1002D000BC01CD010E94AD3A60932E0370932F03B1
:1002E000809330039093310381E00E94AD00A0E041
:1002F000B0E0BC01CD010E94AD3A6093320370932F
:100300003303809334039093350380E090E0B6018B
:10031000A5010AE017ED23E23CE3EE24FF240E944E
:10032000E507C601B5012AE037ED43E25CE30E9430
:10033000AC395B016C016091360370913703809199
:1003400038039091390320E030E040E850E40E9407
:10035000B23B882314F0C39801C0C39A60913E0356
:1003600070913F03809140039091410320E030E081
:1003700040E850EC0E94103A181614F0C49801C0DE
:10038000C49A809B02C0C59801C0C59A819B02C0D7
:10039000C69801C0C69AC09AC4010197F1F7C098E7
:1003A000C4010197F1F78FCF089508950895089536
:1003B000FC018685978560E070E00E94BB2260E0CA
:1003C00070E00E94BB2208950E94D8010895FC01AC
:1003D000868597850E941E130895CF93DF93EC01C5
:1003E0008C859D8501979D878C87892B39F48E8517
:1003F0009F850E941E13CE010E944F38DF91CF913E
:100400000895EF92FF920F931F938C01CB0160E050
:1004100070E00E94BB227C01F801868597850E94CE
:100420001E13C7010E940F15F80197878687C70121
:100430000E941E131F910F91FF90EF900895CF938C
:10044000DF93EC01009739F482E190E00E94A2373B
:10045000EC01009769F1CE010E94C90D8091AE02B6
:100460009091AF02892B89F4AAEAB2E08881998140
:100470009C01F90182E101900D928150E1F784EE37
:1004800091E09093B5028093B4028AEA92E0998356
:10049000888383E090E09B878A871D861C868EE395
:1004A00091E09987888780E00E94F1149F878E876A
:1004B000CE01DF91CF91089580E090E00E941F026D
:1004C000FC01BC01645F7F4F828593854DEE51E056
:1004D0009F010E94E52140E050E060E070E0AC0147
:1004E0008BE00E94BB140895892B19F020E030E0C6
:1004F00003C00E945C029C01C90108950F931F93E1
:10050000CF93DF93DC018B01009719F0C0E0D0E0BE
:1005100007C00E945C02EC01EB81FC81A081B181EB
:100520001896ED91FC9119970284F385E02DCD0189
:10053000B8010995CE01DF91CF911F910F910895D8
:10054000089508958091BC029091BD020E941E13EF
:1005500008950F931F938C01FC01868197810E945F
:100560001E13F801808591850E941E13F801828573
:1005700093850E941E13F801848595850E941E13A1
:100580001F910F910895CF93DF93EC018C819D8192
:1005900001979D838C83892B31F4CE010E94A9029F
:1005A000CE010E944F38DF91CF910895FC01009752
:1005B00039F480E190E00E94A237FC01009791F0AD
:1005C00086E090E0938382831582148286E591E031
:1005D0009183808317821682118610861386128675
:1005E00015861486CF01089580E090E00E94D6021F
:1005F000FC01BC016C5F7F4F8281938143EC52E030
:100600009F010E94E52140E050E060E070E0AC0115
:100610008BE00E94BB140895892B19F020E030E094
:1006200003C00E94F4029C01C90108956F927F9259
:100630008F929F92AF92BF92CF92DF92EF92FF92F2
:100640000F931F93CF93DF93EC016B015A01490184
:100650003801009719F0EE24FF240AC00E94F4022A
:100660007C01DC011396ED91FC911497C081D1813E
:10067000C60160E070E00E94BB228C018E819F81E8
:100680000E941E13C8010E940F159F838E83C8010C
:100690000E941E13C50160E070E00E94BB228C0125
:1006A000888599850E941E13C8010E940F1599879D
:1006B0008887C8010E941E13C40160E070E00E9498
:1006C000BB228C018A859B850E941E13C8010E9453
:1006D0000F159B878A87C8010E941E13C30160E023
:1006E00070E00E94BB228C018C859D850E941E13A8
:1006F000C8010E940F159D878C87C8010E941E1398
:10070000C701DF91CF911F910F91FF90EF90DF9084
:10071000CF90BF90AF909F908F907F906F900895F3
:10072000EF92FF920F931F93CF93DF93EC0180E042
:1007300060E070E00E9491227C018A859B8560E0E8
:1007400070E00E94BB22DC011396ED91FC9114979E
:100750000190F081E02D0190F081E02D028513855C
:100760008A859B8560E070E00E94BB22DC011396C5
:10077000ED91FC91149780819181F80109958C018C
:1007800082E390E060E070E00E949B22BC01C8011F
:1007900040E050E00E9428180E94DB178823C9F12E
:1007A0008C859D8560E070E00E94BB22DC01139681
:1007B000ED91FC9114970190F081E02D0190F08172
:1007C000E02D028513858C859D8560E070E00E9498
:1007D000BB22DC011396ED91FC91149780819181ED
:1007E000F80109958C0182E390E060E070E00E94DE
:1007F0009B22BC01C80140E050E00E9428180E94E2
:10080000DB17882331F081E060E070E00E949122E4
:100810007C01C7010E94DB17882309F470C0E091B6
:10082000C802F091C9020380F481E02DA081B1815A
:100830001896ED91FC9119970088F189E02DCD0172
:10084000099560E070E00E947E1F7C018885998593
:1008500060E070E00E94BB22DC011396ED91FC91F8
:1008600014970190F081E02D0190F081E02D028538
:1008700013858885998560E070E00E94BB22DC01C9
:100880001396ED91FC91149780819181B701F80145
:100890000995E091C802F091C9020380F481E02D2E
:1008A000A081B1811896ED91FC9119970088F1898A
:1008B000E02DCD0109957C018E819F8160E070E083
:1008C0000E94BB22DC011396ED91FC9114970190DC
:1008D000F081E02D0190F081E02D028513858E815D
:1008E0009F8160E070E00E94BB22DC011396ED91D5
:1008F000FC91149780819181B701F801099580E0FE
:1009000060E070E00E9491227C018A859B8560E016
:1009100070E00E94BB22DC011396ED91FC911497CC
:100920000190F081E02D0190F081E02D028513858A
:100930008A859B8560E070E00E94BB22DC011396F3
:10094000ED91FC91149780819181F80109958C01BA
:1009500082E390E060E070E00E949B22BC01C8014D
:1009600040E050E00E9428180E94DB178823C9F15C
:100970008C859D8560E070E00E94BB22DC011396AF
:10098000ED91FC9114970190F081E02D0190F081A0
:10099000E02D028513858C859D8560E070E00E94C6
:1009A000BB22DC011396ED91FC911497808191811B
:1009B000F80109958C0182E390E060E070E00E940C
:1009C0009B22BC01C80140E050E00E94B2180E9486
:1009D000DB17882331F081E060E070E00E94912213
:1009E0007C01C7010E94DB17882309F470C0E091E5
:1009F000CA02F091CB020380F481E02DA081B18185
:100A00001896ED91FC9119970088F189E02DCD01A0
:100A1000099560E070E00E947E1F7C0188859985C1
:100A200060E070E00E94BB22DC011396ED91FC9126
:100A300014970190F081E02D0190F081E02D028566
:100A400013858885998560E070E00E94BB22DC01F7
:100A50001396ED91FC91149780819181B701F80173
:100A60000995E091CC02F091CD020380F481E02D54
:100A7000A081B1811896ED91FC9119970088F189B8
:100A8000E02DCD0109957C018E819F8160E070E0B1
:100A90000E94BB22DC011396ED91FC91149701900A
:100AA000F081E02D0190F081E02D028513858E818B
:100AB0009F8160E070E00E94BB22DC011396ED9103
:100AC000FC91149780819181B701F801099580E02C
:100AD00060E070E00E9491227C018A859B8560E045
:100AE00070E00E94BB22DC011396ED91FC911497FB
:100AF0000190F081E02D0190F081E02D02851385B9
:100B00008A859B8560E070E00E94BB22DC01139621
:100B1000ED91FC91149780819181F80109958C01E8
:100B200082E390E060E070E00E949B22BC01C8017B
:100B300040E050E00E94B2180E94DB178823C9F100
:100B40008C859D8560E070E00E94BB22DC011396DD
:100B5000ED91FC9114970190F081E02D0190F081CE
:100B6000E02D028513858C859D8560E070E00E94F4
:100B7000BB22DC011396ED91FC9114978081918149
:100B8000F80109958C0182E390E060E070E00E943A
:100B90009B22BC01C80140E050E00E9428180E943E
:100BA000DB17882331F081E060E070E00E94912241
:100BB0007C01C7010E94DB17882309F470C0E09113
:100BC000CC02F091CD020380F481E02DA081B181AF
:100BD0001896ED91FC9119970088F189E02DCD01CF
:100BE000099560E070E00E947E1F7C0188859985F0
:100BF00060E070E00E94BB22DC011396ED91FC9155
:100C000014970190F081E02D0190F081E02D028594
:100C100013858885998560E070E00E94BB22DC0125
:100C20001396ED91FC91149780819181B701F801A1
:100C30000995E091CA02F091CB020380F481E02D86
:100C4000A081B1811896ED91FC9119970088F189E6
:100C5000E02DCD0109957C018E819F8160E070E0DF
:100C60000E94BB22DC011396ED91FC911497019038
:100C7000F081E02D0190F081E02D028513858E81B9
:100C80009F8160E070E00E94BB22DC011396ED9131
:100C9000FC91149780819181B701F801099580E05A
:100CA00060E070E00E9491227C018A859B8560E073
:100CB00070E00E94BB22DC011396ED91FC91149729
:100CC0000190F081E02D0190F081E02D02851385E7
:100CD0008A859B8560E070E00E94BB22DC01139650
:100CE000ED91FC91149780819181F80109958C0117
:100CF00082E390E060E070E00E949B22BC01C801AA
:100D000040E050E00E94B2180E94DB178823C9F12E
:100D10008C859D8560E070E00E94BB22DC0113960B
:100D2000ED91FC9114970190F081E02D0190F081FC
:100D3000E02D028513858C859D8560E070E00E9422
:100D4000BB22DC011396ED91FC9114978081918177
:100D5000F80109958C0182E390E060E070E00E9468
:100D60009B22BC01C80140E050E00E94B2180E94E2
:100D7000DB17882331F081E060E070E00E9491226F
:100D80007C01C7010E94DB17DF91CF911F910F916A
:100D9000FF90EF90089584E090E00E9406159093F4
:100DA000BD028093BC020895DF93CF93CDB7DEB729
:100DB00080E0CF91DF91089580E0089580E008956C
:100DC00080E0089580E0089588E691E008958CE63B
:100DD00091E0089580E008950F931F93CF93DF93E0
:100DE0008A01E90120E030E014C0DB01ED91FD91C2
:100DF000BD01EE0FFF1FEE0FFF1FE65DFC4F808170
:100E00009181A281B38189939993A993B9932F5F1B
:100E10003F4F2017310748F380E0DF91CF911F91BA
:100E20000F9108950F931F93CF93DF938A01EB01E6
:100E3000D90120E030E00CC0E991F991EE0FFF1FDD
:100E4000E65BFC4F808191818D939D932F5F3F4F97
:100E50002017310788F380E0DF91CF911F910F9128
:100E600008950F931F93CF93DF938A01EB01D9016C
:100E700020E030E00CC0E991F991EE0FFF1FE65E33
:100E8000FC4F808191818D939D932F5F3F4F201761
:100E9000310788F380E0DF91CF911F910F91089582
:100EA00080E008950F931F93CF93DF938A01E901A8
:100EB00020E030E014C0DB01ED91FD91BD01EE0FAB
:100EC000FF1FEE0FFF1FE65DFC4F89919991A991DD
:100ED000B99180839183A283B3832F5F3F4F201703
:100EE000310748F380E0DF91CF911F910F91089572
:100EF0000F931F93CF93DF938A01EB01D90120E079
:100F000030E00CC0E991F991EE0FFF1FE65BFC4F5A
:100F10008D919D91918380832F5F3F4F20173107E3
:100F200088F380E0DF91CF911F910F9108950F9387
:100F30001F93CF93DF938A01EB01D90120E030E0CA
:100F40000CC0E991F991EE0FFF1FE65EFC4F8D9109
:100F50009D91918380832F5F3F4F2017310788F346
:100F600080E0DF91CF911F910F91089580E0089567
:100F700080E0089580E0089580E0089580E008957D
:100F800080E0089580E0089580E0089580E008956D
:100F900080E0089580E0089580E0089580E008955D
:100FA00080E0089580E0089580E00895FB0180913D
:100FB000C2029091C302A091C402B091C502808385
:100FC0009183A283B38380E008958F929F92AF9222
:100FD000BF92CF92DF92EF92FF920F931F936A011D
:100FE0007B01480159010E94AE0AC701B601A50163
:100FF00094010E94F308182F0E94460A812F1F9126
:101000000F91FF90EF90DF90CF90BF90AF909F90A7
:101010008F9008950E94C4090895CF92DF92EF92B5
:10102000FF920F931F93CF93DF93F82EE92ECA01FF
:10103000D22EC32EE801109319030093180364E71E
:1010400071E00E949B390097A9F18DB79EB70B976D
:101050000FB6F8949EBF0FBE8DBFEDB7FEB73196A9
:1010600081E090E0ADB7BEB712969C938E93119736
:1010700080915A0390915B039383828383E08483FE
:101080008BE991E09683858384EA91E0908787835A
:1010900088EA91E092878187E881F981099520E0CB
:1010A00030E08DB79EB70B960FB6F8949EBF0FBE7B
:1010B0008DBF2EC0EF2DFE2DDF010D900020E9F732
:1010C000CD018E1B9F0B0E94A237182F092F6F2D69
:1010D0007E2D0E94A43910935A0300935B03ED2DDB
:1010E000FC2DDF010D900020E9F7CD018E1B9F0B39
:1010F00061E070E00E94863780931203909313039F
:101100006D2D7C2D0E94A4390E94F90921E030E068
:10111000C901DF91CF911F910F91FF90EF90DF9068
:10112000CF900895CF93DF93E0910E03F0910F03DA
:101130000380F481E02DA081B181ED91FC911197A4
:101140000284F385E02DCD0109958DB79EB70997EF
:101150000FB6F8949EBF0FBE8DBFEDB7FEB73196A8
:10116000A0911803B091190381E090E0CDB7DEB7EC
:101170009A83898380915A0390915B03938382833E
:10118000148287EB91E0968385838EEB91E09087C4
:101190008783ED91FC9109958DB79EB709960FB69F
:1011A000F8949EBF0FBE8DBFDF91CF9108950F932E
:1011B0001F9380E090E00E9471128C01DC01139675
:1011C000ED91FC911497A081B181ED91FC91119763
:1011D0000480F581E02DCD010995C8010E941E1300
:1011E0001F910F9108956F927F928F929F92AF926D
:1011F000BF92CF92DF92EF92FF920F931F93CF9304
:10120000DF937B018C0139014A01A0900302B09069
:101210000402C0900502D0900602C601B501A801E3
:1012200097010E94B23B88230CF446C0C801B70165
:10123000A40193010E94AC397B018C01C601B50168
:10124000A80197010E94B23B88232CF01092FC0168
:101250001092FB012EC06090FD017090FE01809005
:10126000FF0190900002C601B501A40193010E9404
:10127000AC39A80197010E94103A1816A4F0C801D1
:10128000B701A60195010E94AB39A40193010E9408
:10129000143A0E947C3AEB0181E090E09093FC01CB
:1012A0008093FB012CC081E090E09093FC0180933F
:1012B000FB01C0E0D0E023C0C801B701A401930145
:1012C0000E94AC39A60195010E94AB392091FD0125
:1012D0003091FE014091FF01509100020E94143AAA
:1012E0000E947C3AEB0121E030E03093FC01209336
:1012F000FB01672B21F41092FC011092FB0100E02E
:1013000010E021C0E0910102F09102020995609184
:1013100003027091040280910502909106022091CF
:10132000FD013091FE014091FF01509100020E94A9
:10133000AC3960930302709304028093050290938A
:1013400006020F5F1F4F0C171D07E4F20E942724AF
:1013500080E09EEFAFEFB6E48093C2029093C302A9
:10136000A093C402B093C50280E0DF91CF911F919A
:101370000F91FF90EF90DF90CF90BF90AF909F9034
:101380008F907F906F9008950E94DE0E0E94BC0D9A
:101390000E94EC0C0E94D7010E94110E0E94721054
:1013A0000E94A1020E9417120E944E120E94EC0B92
:1013B0000E94A30F0E940F0F0E94FE0D0E94EA0CD4
:1013C0000E94D5010E940F0E0E9470100E94A2027E
:1013D0000E9424120E9490120E94680C0E94DA0F50
:1013E0008091C0029091C1020E941E130E94B124FC
:1013F00008950E94A5226091FD017091FE018091E7
:10140000FF019091000228E23BE64EE65EE40E9476
:10141000143A6093FD017093FE018093FF01909355
:1014200000020E94990F0E94050E0E94E90C0E9482
:10143000D4010E940E0E0E946F100E94CB060E94E3
:1014400038120E9497120E94B30C0E9466100E94EC
:10145000DD0E0E94BB0D0E94EB0C0E94D6010E9483
:10146000100E0E9471100E94A0020E942B120E9476
:101470004D120E94EB0B0E94A20F80E090E00E94B0
:1014800069119093C1028093C00208950F931F9336
:101490008091FB019091FC01892B09F45CC0E091E3
:1014A0000C03F0910D030380F481E02D0190F08195
:1014B000E02D868597850E940F158C01DC0113961F
:1014C000ED91FC9114970190F081E02D8685978530
:1014D0000E940F15FC0183819481A581B6818093C0
:1014E000360390933703A0933803B0933903CF01A9
:1014F0000E941E13C8010E941E13E0910C03F0917C
:101500000D030380F481E02D0190F081E02D8485AE
:1015100095850E940F158C01DC011396ED91FC91CD
:1015200014970190F081E02D868597850E940F1514
:10153000FC0183819481A581B68180933E039093C1
:101540003F03A0934003B0934103CF010E941E13B9
:10155000C8010E941E131F910F910895CF92DF9230
:10156000EF92FF920F931F9360912A0370912B03C8
:1015700080912C0390912D030E94EB147C01E0914B
:10158000CA02F091CB020380F481E02D0190F0813A
:10159000E02D868597850E941E13E091CA02F09186
:1015A000CB020380F481E02D00811181C7010E94EC
:1015B0000F15D8011F969C938E931E97C7010E940A
:1015C0001E1360912E0370912F0380913003909130
:1015D00031030E94EB146C01E0910C03F0910D03B8
:1015E0000380F481E02D0190F081E02D86819781C8
:1015F0000E940F158C01DC011396ED91FC9114975C
:101600000190F081E02D868597850E941E13D801F8
:101610001396ED91FC911497E080F180C6010E9431
:101620000F15F70197878687C6010E941E13C80110
:101630000E941E1360913203709133038091340332
:10164000909135030E94EB146C01E0910C03F09132
:101650000D030380F481E02D0190F081E02D808561
:1016600091850E940F158C01DC011396ED91FC9180
:1016700014970190F081E02D868597850E941E13B6
:10168000D8011396ED91FC911497E080F180C6018A
:101690000E940F15F70197878687C6010E941E13C7
:1016A000C8010E941E1360913A0370913B03809120
:1016B0003C0390913D030E94EB146C01E0910C03FC
:1016C000F0910D030380F481E02D0190F081E02D75
:1016D000828593850E940F158C01DC011396ED9194
:1016E000FC9114970190F081E02D868597850E94EA
:1016F0001E13D8011396ED91FC911497E080F180B0
:10170000C6010E940F15F70197878687C6010E94C0
:101710001E13C8010E941E1360914203709143037F
:1017200080914403909145030E94EB147C01E09169
:10173000CC02F091CD020380F481E02D0190F08184
:10174000E02D868597850E941E13E091CC02F091D2
:10175000CD020380F481E02D00811181C7010E9438
:101760000F15D8011F969C938E931E97C7010E9458
:101770001E13609146037091470380914803909136
:1017800049030E94EB147C01E091C802F091C90268
:101790000380F481E02D0190F081E02D868597850E
:1017A0000E941E13E091C802F091C9020380F481E7
:1017B000E02D00811181C7010E940F15F801978764
:1017C0008687C7010E941E131F910F91FF90EF9013
:1017D000DF90CF90089508950895CF93DF93EC01A3
:1017E000009741F482E190E00E94A237EC0100975B
:1017F00009F44BC089E090E09B838A831D821C82A0
:1018000087E092E09983888360E070E080E090E078
:101810000E94EB14BC0180E090E00E94BB0E9F830D
:101820008E8360E070E080E090E00E94EB14BC01E9
:1018300080E090E00E94BB0E9987888760E070E0AE
:1018400080E090E00E94EB14BC0180E090E00E94F8
:10185000BB0E9B878A8760E070E080E090E00E948A
:10186000EB14BC0180E090E00E94BB0E9D878C874A
:1018700060E070E080E090E00E94EB14BC0180E04A
:1018800090E00E94BB0E9F878E87CE01DF91CF91A3
:101890000895892B19F020E030E018C080E090E036
:1018A0000E94ED0BFC01BC016C5F7F4F8281938134
:1018B00040EA5CE09F010E94E52140E050E060E0EA
:1018C00070E0AC018BE00E94BB149C01C90108953B
:1018D0008091C6029091C7020E941E138091C80297
:1018E0009091C9020E941E138091CA029091CB026E
:1018F0000E941E138091CC029091CD020E941E1373
:1019000008950F931F938C01FC01868197810E949B
:101910001E13F801808591850E941E13F8018285AF
:1019200093850E941E13F801848595850E941E13DD
:10193000F801868597850E941E131F910F910895C7
:10194000CF93DF93EC018C819D8101979D838C83E4
:10195000892B31F4CE010E94810CCE010E944F38B8
:10196000DF91CF91089588E090E00E940615909352
:10197000C7028093C60260E070E080E890E40E94B5
:10198000EB14BC0180E090E00E94BB0E9093C90272
:101990008093C80260E070E080EA90E40E94EB145B
:1019A000BC0180E090E00E94BB0E9093CB0280933C
:1019B000CA0260E070E080E89FE30E94EB14BC0183
:1019C00080E090E00E94BB0E9093CD028093CC0209
:1019D00008950895089508950895FC0186859785D2
:1019E00060E070E00E94BB2260E070E00E94BB22D9
:1019F00008950E94ED0C0895FC01868597850E944C
:101A00001E130895CF93DF93EC018C859D8501977C
:101A10009D878C87892B39F48E859F850E941E13A4
:101A2000CE010E944F38DF91CF910895EF92FF923F
:101A30000F931F938C01CB0160E070E00E94BB22EA
:101A40007C01F801868597850E941E13C7010E94BC
:101A50000F15F80197878687C7010E941E131F91F3
:101A60000F91FF90EF900895CF93DF93EC010097D3
:101A700039F482E190E00E94A237EC01009771F105
:101A8000CE010E94C90D8091D2029091D302892B80
:101A900089F4AEECB2E0888199819C01F90182E180
:101AA00001900D928150E1F789EF9CE09093D9026B
:101AB0008093D8028EEC92E09983888382E090E054
:101AC0009B878A871D861C868DE092E09987888790
:101AD00080E090E00E9406159F878E87CE01DF91FF
:101AE000CF91089580E090E00E94340DFC01BC018C
:101AF000645F7F4F8285938542E05DE09F010E9495
:101B0000E52140E050E060E070E0AC018BE00E9435
:101B1000BB140895892B19F020E030E003C00E9427
:101B2000720D9C01C90108950F931F93CF93DF930A
:101B3000DC018B01009719F0C0E0D0E007C00E94E3
:101B4000720DEC01EB81FC81A081B1811896ED91C1
:101B5000FC9119970284F385E02DCD01B801099518
:101B6000CE01DF91CF911F910F91089508950895AF
:101B700080E090E0089508950895FC0184819581A6
:101B8000019795838483892B19F4CF010E944F38E4
:101B90000895FC01009739F488E090E00E94A23794
:101BA000FC01009751F081E090E0938382831582DD
:101BB000148285E292E091838083CF010895892B7E
:101BC00019F020E030E018C080E090E00E94C90DDC
:101BD000FC01BC016C5F7F4F828193814DEB5DE026
:101BE0009F010E94E52140E050E060E070E0AC0120
:101BF0008BE00E94BB149C01C90108958091E00212
:101C00009091E1020E941E13089580E090E00E94EE
:101C100006159093E1028093E002089508950895D7
:101C200008950895FC018685978560E070E00E9424
:101C3000BB2260E070E00E94BB2208950E94120E59
:101C40000895FC01868597850E941E130895CF9301
:101C5000DF93EC018C859D8501979D878C87892B6F
:101C600039F48E859F850E941E13CE010E944F3845
:101C7000DF91CF910895EF92FF920F931F938C0104
:101C8000CB0160E070E00E94BB227C01F8018685F8
:101C900097850E941E13C7010E940F15F8019787B0
:101CA0008687C7010E941E131F910F91FF90EF902E
:101CB0000895CF93DF93EC01009739F482E190E02F
:101CC0000E94A237EC01009781F1CE010E94C90D5C
:101CD0008091E6029091E702892B89F4A2EEB2E0AE
:101CE000888199819C01F90182E101900D928150D6
:101CF000E1F78EE19EE09093ED028093EC0282EE9C
:101D000092E09983888384E090E09B878A871D8690
:101D10001C8687E392E09987888760E070E080E026
:101D200090E00E94EB149F878E87CE01DF91CF91C8
:101D3000089580E090E00E94590EFC01BC01645FB0
:101D40007F4F8285938547E25EE09F010E94E521F7
:101D500040E050E060E070E0AC018BE00E94BB141A
:101D60000895892B19F020E030E003C00E94990EFD
:101D70009C01C90108950F931F93CF93DF93DC015A
:101D80008B01009719F0C0E0D0E007C00E94990EC7
:101D9000EC01EB81FC81A081B1811896ED91FC9161
:101DA00019970284F385E02DCD01B8010995CE0184
:101DB000DF91CF911F910F91089508950895EF92AB
:101DC000FF920F931F938C01DC0116968D919C91CD
:101DD000179760E070E00E94BB22DC011396ED9142
:101DE000FC9114970190F081E02D0084F185E02DA5
:101DF000E088F188F8018681978160E070E00E94B8
:101E0000BB22DC011396ED91FC91149780819181A6
:101E1000F70109951F910F91FF90EF900895809120
:101E2000F4029091F5020E941E130895FC01868130
:101E300097810E941E130895CF93DF93EC018C814C
:101E40009D8101979D838C83892B39F48E819F819D
:101E50000E941E13CE010E944F38DF91CF9108954A
:101E6000FC01009739F48AE090E00E94A237FC015F
:101E7000009751F013821282158214828FE492E04F
:101E80009183808317821682CF01089580E090E0CD
:101E90000E94300FFC01BC016C5F7F4F82819381F7
:101EA0004CE15FE09F010E94E52140E050E060E0EE
:101EB00070E0AC018BE00E94BB140895892B19F0EF
:101EC00020E030E003C00E94460F9C01C901089544
:101ED000EF92FF920F931F93CF93DF93EC018B014F
:101EE000009719F0EE24FF240AC00E94460F7C01DF
:101EF000DC011396ED91FC911497C081D181C8014A
:101F000060E070E00E94BB228C018E819F810E9464
:101F10001E13C8010E940F159F838E83C8010E9463
:101F20001E13C701DF91CF911F910F91FF90EF908A
:101F3000089581E090E00E9406159093F502809349
:101F4000F402089508950895CF92DF92EF92FF92E0
:101F50000F931F938C016B01DC0116968D919C9160
:101F6000179760E070E00E94BB22DC011396ED91B0
:101F7000FC9114970190F081E02D0084F185E02D13
:101F8000E284F384F8018681978160E070E00E942A
:101F9000BB22DC011396ED91FC9114978081918115
:101FA000B601F70109951F910F91FF90EF90DF9017
:101FB000CF9008958091F6029091F7020E941E132F
:101FC0000895FC01868197810E941E130895CF9386
:101FD000DF93EC018C819D8101979D838C83892BFC
:101FE00039F48E819F810E941E13CE010E944F38CA
:101FF000DF91CF910895FC01009739F48AE090E0D9
:102000000E94A237FC01009761F08AE090E0938380
:1020100082831582148281E692E091838083178205
:102020001682CF01089580E090E00E94FB0FFC0132
:10203000BC016C5F7F4F8281938147EE5FE09F011F
:102040000E94E52140E050E060E070E0AC018BE0F0
:102050000E94BB140895892B19F020E030E003C0E2
:102060000E9413109C01C9010895EF92FF920F93F3
:102070001F93CF93DF93EC018B01009719F0EE24AF
:10208000FF240AC00E9413107C01DC011396ED911D
:10209000FC911497C081D181C80160E070E00E947A
:1020A000BB228C018E819F810E941E13C8010E9459
:1020B0000F159F838E83C8010E941E13C701DF91F5
:1020C000CF911F910F91FF90EF90089581E090E0E4
:1020D0000E9406159093F7028093F60208950895E2
:1020E000089508950895FC018685978560E070E065
:1020F0000E94BB2260E070E00E94BB2208950E9413
:1021000073100895FC01868597850E941E1308951B
:10211000CF93DF93EC018C859D8501979D878C87FC
:10212000892B39F48E859F850E941E13CE010E9453
:102130004F38DF91CF910895EF92FF920F931F9345
:102140008C01CB0160E070E00E94BB227C01F801B1
:10215000868597850E941E13C7010E940F15F801FE
:1021600097878687C7010E941E131F910F91FF90CA
:10217000EF900895CF93DF93EC01009739F482E15B
:1021800090E00E94A237EC010097C1F1CE010E94BD
:10219000C90D8091FC029091FD02892B89F4A8EF72
:1021A000B2E0888199819C01F90182E101900D9250
:1021B0008150E1F78FE790E190930303809302034E
:1021C00088EF92E09983888385E090E09B878A87F7
:1021D0001D861C8683E792E09987888700D000D00F
:1021E000EDB7FEB712821182148213820E945B281F
:1021F0009F878E870F900F900F900F90CE01DF91E9
:10220000CF91089580E090E00E94BA10FC01BC01DB
:10221000645F7F4F8285938548E850E19F010E946B
:10222000E52140E050E060E070E0AC018BE00E940E
:10223000BB140895892B19F020E030E003C00E9400
:1022400002119C01C90108950F931F93CF93DF934F
:10225000DC018B01009719F0C0E0D0E007C00E94BC
:102260000211EC01EB81FC81A081B1811896ED9106
:10227000FC9119970284F385E02DCD01B8010995F1
:10228000CE01DF91CF911F910F9108950895FC0128
:1022900084819581019795838483892B19F4CF01DB
:1022A0000E944F380895FC01009739F488E090E0CF
:1022B0000E94A237FC01009751F087E090E09383E1
:1022C0008283158214828BE892E091838083CF0110
:1022D0000895AF92BF92CF92DF92EF92FF920F9349
:1022E0001F93CF93DF93892B19F0C0E0D0E018C083
:1022F00080E090E00E945311FC01BC016C5F7F4FB5
:102300008281938147E451E19F010E94E52140E0F1
:1023100050E060E070E0AC018BE00E94BB14EC0187
:1023200080910C0390910D0360E070E00E94BB224D
:10233000DC011396ED91FC9114970190F081E02D52
:102340008685978560E070E00E94BB22BC0180E03A
:1023500090E00E9435105C0180910C0390910D0378
:1023600060E070E00E94BB22DC011396ED91FC91CD
:1023700014970190F081E02D8485958560E070E0F0
:102380000E94BB22BC0180E090E00E9435106C01ED
:1023900080910C0390910D0360E070E00E94BB22DD
:1023A000DC011396ED91FC9114970190F081E02DE2
:1023B0008085918560E070E00E94BB22BC0180E0D6
:1023C00090E00E94680F7C0180910C0390910D03B6
:1023D00060E070E00E94BB22DC011396ED91FC915D
:1023E00014970190F081E02D8681978160E070E084
:1023F0000E94BB22BC0180E090E00E94680F8C012B
:1024000080E090E0B501A60197010E941603909329
:102410000F0380930E03CE01DF91CF911F910F9197
:10242000FF90EF90DF90CF90BF90AF900895809194
:102430000C0390910D030E941E1380910E03909146
:102440000F030E941E13089580910A0390910B03BD
:102450000E941E13089580E090E00E94490C909322
:102460000D0380930C0310920F0310920E03089536
:1024700082E090E00E94061590930B0380930A037C
:1024800008950895FC01A081B1811A962D913C9187
:102490001B97F90109950895089508950895FC0181
:1024A00084819581019795838483892B19F4CF01C9
:1024B0000E944F380895FC01009739F488E090E0BD
:1024C0000E94A237FC01009751F088E090E09383CE
:1024D00082831582148281E992E091838083CF0107
:1024E0000895892B19F020E030E018C080E090E0DA
:1024F0000E945B12FC01BC016C5F7F4F8281938163
:102500004FE452E19F010E94E52140E050E060E08D
:1025100070E0AC018BE00E94BB149C01C9010895DE
:1025200080911003909111030E941E13089580E082
:1025300090E00E9406159093110380931003089574
:10254000EF92FF920F931F93CF93DF937C0100973D
:1025500009F46DC0DC018C91883039F08B3009F4BE
:102560004BC0873009F060C026C0F7010381148199
:10257000C0E0D0E00CC0CE01880F991FE80FF91F12
:1025800080819181009711F00E94A0122196D801BC
:1025900012968D919C911397ED91FC91C817D907D4
:1025A00054F3CF010E944F38C8010E944F38F70101
:1025B0001482138239C0D70113960D911C91149780
:1025C000C0E0D0E00CC0CE01880F991FE80FF91FC2
:1025D00080819181009711F00E94A0122196F8014C
:1025E000828193810190F081E02DC817D9075CF3B7
:1025F000CF010E944F3810C0F70103811481D80128
:102600001696ED91FC9117978D919C910995F80183
:102610001182108217821682C8010E944F38D7019A
:1026200014961C921E921397C7010E944F38DF9197
:10263000CF911F910F91FF90EF900895EF92FF922D
:102640000F931F93CF93DF937C01009709F477C01A
:10265000DC018C91883039F08B3009F44BC0873025
:1026600009F060C026C0F70103811481C0E0D0E00A
:102670000CC0CE01880F991FE80FF91F808191814E
:10268000009711F00E941E132196D80112968D9189
:102690009C911397ED91FC91C817D90754F3CF0182
:1026A0000E944F38C8010E944F38F70114821382EC
:1026B00039C0D70113960D911C911497C0E0D0E05A
:1026C0000CC0CE01880F991FE80FF91F80819181FE
:1026D000009711F00E941E132196F80182819381C8
:1026E0000190F081E02DC817D9075CF3CF010E945B
:1026F0004F3810C0F70103811481D8011696ED916F
:10270000FC9117978D919C910995F8011182108287
:1027100017821682C8010E944F38D70114961C9266
:102720001E921397C7010E94EE23F701C181D28147
:10273000C7010E944F38209711F019821882DF914B
:10274000CF911F910F91FF90EF900895CF92DF925C
:10275000EF92FF920F93DF93CF9300D000D000D081
:10276000CDB7DEB77C016B010E94A2178823B9F0B8
:10277000C6010E94A217882391F0C7010E94AD17DD
:102780006B837C838D839E83C6010E94AD179B0162
:10279000AC0100E06B817C818D819E8134C0F701AA
:1027A0009081F6018081981709F05FC09630B9F0EA
:1027B000973028F4933099F09430D0F429C09930B0
:1027C00039F19A3030F4973089F1983009F04DC0E2
:1027D00027C09A30E9F09B3009F047C035C000E0CF
:1027E000F7019381F6018381981709F03FC03BC040
:1027F00000E0F7016381748185819681F601238170
:102800003481458156810E94103A882379F52BC086
:1028100000E0F70123813481F6018381948120C097
:10282000C701B6010E945D14082F20C0C701B60180
:102830000E946F2B9A8389830E94DB17082F89815E
:102840009A810E941E1312C000E0F70183819481D7
:10285000F601A381B481FC01208131818D919C918D
:102860002817390719F401E001C000E0802F2696EF
:102870000FB6F894DEBF0FBECDBFCF91DF910F91A1
:10288000FF90EF90DF90CF9008950F931F938A01F0
:102890000E94A61391E08927B8010E9491221F91FE
:1028A0000F9108950F931F938A010E94A613B801F8
:1028B0000E9491221F910F910895CF92DF92FF9273
:1028C0000F931F93CF93DF93FB01DC0113960D91C0
:1028D0001C911497C380D480F80122813381D601E2
:1028E00012968D919C9113972817390711F0FF24A8
:1028F0002CC0C0E0D0E0FF24F3941FC0CE01880FAD
:10290000991FF801A081B181A80FB91FF60120819C
:102910003181280F391FF901608171818D919C915E
:102920000E94A61390E02F2D30E082239323FF24F2
:10293000892B11F0FF24F3942196D80112968D91E2
:102940009C911397C817D907CCF28F2DDF91CF91A7
:102950001F910F91FF90DF90CF900895FC0180812F
:102960008750823010F00E9483390380F481E02D7B
:10297000828193810895DF92EF92FF920F931F93CC
:10298000D82E7A018B0187E090E00E94A237FC01EB
:10299000009711F40E948339D082E382F482058388
:1029A0001683128211821F910F91FF90EF90DF909A
:1029B000089540E050E060E070E0AC0189E00E94E2
:1029C000BB14089540E050E060E070E0482F86E0DE
:1029D0000E94BB140895AB01BC0184E00E94BB14AB
:1029E000089540E050E060E070E0482F83E00E94EE
:1029F000BB1408950E94A61391E089270E94F11448
:102A000008950E94A6130E94F114089540E050E03A
:102A100060E070E0AC0180E00E94BB140895AF92CA
:102A2000BF92CF92DF92EF92FF920F931F93CF93BB
:102A3000DF93FC01009719F4AA24BB24B1C04381A1
:102A400054816581768180810E94BB145C01DC0128
:102A50008C91883039F08B3009F490C0873009F0C0
:102A60009FC043C0F5010381D48084E090E00E94C0
:102A7000A237EC01009709F45DC0E02EFD2CF701B0
:102A800080819181A281B38188839983AA83BB834A
:102A90008A819B81880F991F0E94A237998388831E
:102AA000009709F447C0CC24DD2416C0C601880F66
:102AB000991F08811981080F191FD701ED91FC9109
:102AC000E80FF91F808191810E940F15F801918311
:102AD00080830894C11CD11CD70112968D919C91C2
:102AE0001397C816D90614F345C0D50113960C9157
:102AF00013971496DC9084E090E00E94A237EC01DA
:102B00000097C1F0E02EFD2CF70180819181A28118
:102B1000B38188839983AA83BB838A819B81880F31
:102B2000991F0E94A23799838883009719F0CC24BB
:102B3000DD2418C00E948339C601880F991F0881BF
:102B40001981080F191FD701ED91FC91E80FF91FAA
:102B5000808191810E940F15F801918380830894F0
:102B6000C11CD11CD70112968D919C911397C81648
:102B7000D90614F3F501D483C38312C0D50113968B
:102B8000ED91FC9114976481758146815781208174
:102B90003181828193810E94E521F50194838383B1
:102BA000C501DF91CF911F910F91FF90EF90DF90C2
:102BB000CF90BF90AF900895FC0180818750823004
:102BC00058F42381848177FD07C0E22FF82F82819A
:102BD00093816817790714F00E948339660F771F75
:102BE0000190F081E02DE60FF71F808191810E9416
:102BF0000F150895DF92EF92FF920F931F93CF93DB
:102C0000DF938C017B01D42E84E090E00E94A237F8
:102C1000EC01009759F01B830A83C70162E070E062
:102C20000E94863799838883009711F40E94833924
:102C300040E050E060E070E0AE018D2D0E94BB14DA
:102C4000DF91CF911F910F91FF90EF90DF9008954A
:102C50008F929F92AF92BF92CF92DF92EF92FF92AC
:102C60000F931F93CF93DF934C01122F032F0E94DA
:102C7000FA157C01FC01A380B480212F302FC901FB
:102C80006C01C0E0D0E012C0CE01880F991FF501A1
:102C900000811181080F191FF601819191916F0137
:102CA0000E940F15F801918380832196C815D905DC
:102CB00058F3C701DF91CF911F910F91FF90EF90D3
:102CC000DF90CF90BF90AF909F908F900895FF922C
:102CD0000F931F93CF93DF938C01F62E84E090E047
:102CE0000E94A237EC01009781F01B830A83011533
:102CF000110511F401E010E0C80162E070E00E94EB
:102D0000863799838883009711F40E94833940E0C5
:102D100050E060E070E0AE018F2D0E94BB14DF91A7
:102D2000CF911F910F91FF9008958F929F92AF9234
:102D3000BF92CF92DF92EF92FF920F931F93CF93A8
:102D4000DF935C01142F052F0E9467167C01FC01A4
:102D500083809480212F302FC9016C01C0E0D0E026
:102D600012C0CE01880F991FF40100811181080F54
:102D7000191FF601819191916F010E940F15F801C1
:102D8000918380832196CA15DB0558F3C701DF9133
:102D9000CF911F910F91FF90EF90DF90CF90BF9058
:102DA000AF909F908F900895BF92CF92DF92EF9255
:102DB000FF920F931F93CF93DF938C017B01B42E6F
:102DC000690184E090E00E94A237EC01009759F07D
:102DD0001B830A83C70162E070E00E9486379983F3
:102DE0008883009711F40E94833940E050E060E04E
:102DF00070E0AE018B2D96010E943D22DF91CF91B4
:102E00001F910F91FF90EF90DF90CF90BF900895AA
:102E1000DF92EF92FF920F931F93CF93DF938C017A
:102E2000D62E7A0184E090E00E94A237EC01009750
:102E300081F01B830A830115110511F401E010E0F4
:102E4000C80162E070E00E9486379983888300970A
:102E500011F40E94833940E050E060E070E0AE0180
:102E60008D2D97010E943D22DF91CF911F910F91EF
:102E7000FF90EF90DF9008958F929F92AF92BF9254
:102E8000CF92DF92EF92FF920F931F93CF93DF9336
:102E90004C01142F052FA9010E9408177C01FC0189
:102EA000A380B480212F302FC9016C01C0E0D0E095
:102EB00012C0CE01880F991FF50100811181080F02
:102EC000191FF601819191916F010E940F15F80170
:102ED000918380832196C815D90558F3C701DF91E6
:102EE000CF911F910F91FF90EF90DF90CF90BF9007
:102EF000AF909F908F900895CF93DF930E945237A9
:102F0000AC01FC01C5E0D5E109C0CE01880F991FD5
:102F1000880F991F820F931FC80FD91F8191282FE7
:102F200030E02115310589F7CA010E944F3840E091
:102F300050E060E070E0AE018AE00E94BB14DF91D7
:102F4000CF910895FC01E081E33028F0E450E230B5
:102F500010F080E0089581E00895FC0180818330C5
:102F600040F08450823070F060E070E080E090E0EB
:102F70000DC063817481882777FD8095982F0E940A
:102F8000AF3A04C063817481858196810895FC0104
:102F90008081833028F0843031F060E070E009C037
:102FA0006381748106C063817481858196810E94EA
:102FB0007C3ACB010895FC018081833011F00E949E
:102FC000833983810895AF92BF92CF92DF920F939E
:102FD000DF93CF9300D000D0CDB7DEB7FC015B010B
:102FE0006A018081833020F0843011F0853041F413
:102FF000D5018C91833030F0843021F0853011F090
:103000000E948339CF010E94AD1769837A838B8335
:103010009C83C5010E94AD179B01AC0100E0698152
:103020007A818B819C810E94103A18160CF001E085
:10303000802FB6010E9491220F900F900F900F9059
:10304000CF91DF910F91DF90CF90BF90AF90089517
:10305000AF92BF92CF92DF920F93DF93CF9300D0C6
:1030600000D0CDB7DEB7FC015B016A0180818330FF
:1030700020F0843011F0853041F4D5018C918330FB
:1030800030F0843021F0853011F00E948339CF0177
:103090000E94AD1769837A838B839C83C5010E944C
:1030A000AD179B01AC0100E069817A818B819C8125
:1030B0000E94103A88230CF401E0802FB6010E9490
:1030C00091220F900F900F900F90CF91DF910F9161
:1030D000DF90CF90BF90AF900895AF92BF92CF9204
:1030E000DF920F93DF93CF9300D000D0CDB7DEB740
:1030F000FC015B016A018081833020F0843011F093
:10310000853041F4D5018C91833030F0843021F04A
:10311000853011F00E948339CF010E94AD17698379
:103120007A838B839C83C5010E94AD179B01AC0100
:1031300000E069817A818B819C810E94B23B882367
:103140000CF001E0802FB6010E9491220F900F90A9
:103150000F900F90CF91DF910F91DF90CF90BF90A4
:10316000AF900895AF92BF92CF92DF920F93DF930B
:10317000CF9300D000D0CDB7DEB7FC015B016A0170
:103180008081833020F0843011F0853041F4D50106
:103190008C91833030F0843021F0853011F00E9422
:1031A0008339CF010E94AD1769837A838B839C8317
:1031B000C5010E94AD179B01AC0100E069817A81D5
:1031C0008B819C810E94B23B18160CF401E0802F89
:1031D000B6010E9491220F900F900F900F90CF9107
:1031E000DF910F91DF90CF90BF90AF900895AF9295
:1031F000BF92CF92DF920F93DF93CF9300D000D096
:10320000CDB7DEB7FC015B016A018081833020F01D
:10321000843011F0853041F4D5018C91833030F049
:10322000843021F0853011F00E948339CF010E9453
:10323000AD1769837A838B839C83C5010E94AD1788
:103240009B01AC0100E069817A818B819C810E94A5
:10325000103A882309F401E0802FB6010E949122E0
:103260000F900F900F900F90CF91DF910F91DF9003
:10327000CF90BF90AF900895FC018081833021F4FE
:1032800081E00E949122089580E00E949122089599
:10329000FC018081843021F481E00E949122089514
:1032A00080E00E9491220895FC018081882321F40E
:1032B00081E00E949122089580E00E949122089569
:1032C000FC01DB01009719F16115710501F18081A5
:1032D000833019F48C91833011F00E9483399381EB
:1032E000992341F013968C911397882319F480E069
:1032F00090E008C013968C91882319F481E090E047
:1033000001C0892FBA010E9491229C0102C020E0D5
:1033100030E0C9010895FC01DB010097B9F080811C
:10332000833059F48381882311F481E00AC0611548
:10333000710561F08C91833011F00E9483391396EE
:103340008C91BA010E9491229C0102C020E030E0E1
:10335000C9010895FC01DB010097F1F061157105C9
:10336000D9F08081833019F48C91833011F00E9460
:103370008339838113969C91882311F4892F07C088
:1033800060E070E0992311F461E070E0862FBA01EB
:103390000E9491229C0102C020E030E0C901089502
:1033A000FC01DB010097B9F08081833059F48381FF
:1033B000882311F081E00AC06115710561F08C91DC
:1033C000833011F00E94833913968C91BA010E94C8
:1033D00091229C0102C020E030E0C9010895FC0167
:1033E000DB010097A9F08081833049F48381882331
:1033F00051F06115710561F08C91833011F00E94DC
:10340000833913968C91BA010E9491229C0102C0CB
:1034100020E030E0C9010895FC01009719F420E094
:1034200030E00BC08081833011F00E9483398381AA
:1034300091E089270E9491229C01C9010895CF92B1
:10344000DF920F93DF93CF9300D000D0CDB7DEB7DC
:10345000FC016B018081833020F0843011F08530D5
:1034600041F4D6018C91833030F0843021F08530E6
:1034700011F00E948339CF010E94AD1769837A83CE
:103480008B839C83C6010E94AD179B01AC0100E0B9
:1034900069817A818B819C810E94103A18160CF008
:1034A00001E0802F0E94F1140F900F900F900F9069
:1034B000CF91DF910F91DF90CF900895CF92DF925F
:1034C0000F93DF93CF9300D000D0CDB7DEB7FC01D0
:1034D0006B018081833020F0843011F0853041F41D
:1034E000D6018C91833030F0843021F0853011F09A
:1034F0000E948339CF010E94AD1769837A838B8341
:103500009C83C6010E94AD179B01AC0100E069815C
:103510007A818B819C810E94103A88230CF401E00F
:10352000802F0E94F1140F900F900F900F90CF9169
:10353000DF910F91DF90CF900895CF92DF920F939C
:10354000DF93CF9300D000D0CDB7DEB7FC016B0185
:103550008081833020F0843011F0853041F4D60131
:103560008C91833030F0843021F0853011F00E944E
:103570008339CF010E94AD1769837A838B839C8343
:10358000C6010E94AD179B01AC0100E069817A8100
:103590008B819C810E94B23B88230CF001E0802F3C
:1035A0000E94F1140F900F900F900F90CF91DF9128
:1035B0000F91DF90CF900895CF92DF920F93DF931A
:1035C000CF9300D000D0CDB7DEB7FC016B01808176
:1035D000833020F0843011F0853041F4D6018C9195
:1035E000833030F0843021F0853011F00E9483392F
:1035F000CF010E94AD1769837A838B839C83C601B8
:103600000E94AD179B01AC0100E069817A818B813A
:103610009C810E94B23B18160CF401E0802F0E949E
:10362000F1140F900F900F900F90CF91DF910F91A9
:10363000DF90CF900895CF92DF920F93DF93CF93D7
:1036400000D000D0CDB7DEB7FC016B0180818330A4
:1036500020F0843011F0853041F4D6018C91833014
:1036600030F0843021F0853011F00E948339CF0191
:103670000E94AD1769837A838B839C83C6010E9465
:10368000AD179B01AC0100E069817A818B819C813F
:103690000E94103A882309F401E0802F0E94F1145F
:1036A0000F900F900F900F90CF91DF910F91DF90BF
:1036B000CF900895FC018081833021F481E00E9445
:1036C000F114089580E00E94F1140895FC018081B6
:1036D000843021F481E00E94F114089580E00E947A
:1036E000F1140895FC018081882321F481E00E9477
:1036F000F114089580E00E94F1140895FC01DB01AB
:10370000009711F161157105F9F08081833019F48A
:103710008C91833011F00E9483399381992341F079
:1037200013968C911397882319F480E090E008C0D9
:1037300013968C91882319F481E090E001C0892FC1
:103740000E94F1149C0102C020E030E0C9010895FC
:10375000FC01DB010097B1F08081833059F4838153
:10376000882311F481E00AC06115710559F08C912C
:10377000833011F00E94833913968C910E94F114CA
:103780009C0102C020E030E0C9010895FC01DB018A
:103790000097E9F061157105D1F08081833019F44B
:1037A0008C91833011F00E948339838113969C9110
:1037B000882311F4892F07C060E070E0992311F489
:1037C00061E070E0862F0E94F1149C0102C020E0AD
:1037D00030E0C9010895FC01DB010097B1F0808160
:1037E000833059F48381882311F081E00AC0611588
:1037F000710559F08C91833011F00E948339139632
:103800008C910E94F1149C0102C020E030E0C901BB
:103810000895FC01DB010097A1F08081833049F419
:103820008381882351F06115710559F08C918330A3
:1038300011F00E94833913968C910E94F1149C011F
:1038400002C020E030E0C9010895FC01009719F49E
:1038500020E030E00BC08081833011F00E9483397A
:10386000838191E089270E94F1149C01C901089588
:10387000CF92DF92EF92FF920F931F93CF93DF933C
:10388000FC01EB016A018081833020F0843011F06B
:10389000853039F48881833030F0843021F08530F0
:1038A00011F00E948339CF010E94AD177B018C017A
:1038B000CE010E94AD179B01AC01C801B7010E9467
:1038C000193CA6010E948022DF91CF911F910F9198
:1038D000FF90EF90DF90CF900895CF92DF92EF921C
:1038E000FF920F931F93CF93DF93FC01EB016A01CB
:1038F0008081833020F0843011F0853039F4888164
:10390000833030F0843021F0853011F00E9483390B
:10391000CF010E94AD177B018C01CE010E94AD1733
:103920009B01AC01C801B7010E94143AA6010E9494
:103930008022DF91CF911F910F91FF90EF90DF9048
:10394000CF900895EF92FF920F931F93CF93DF9341
:10395000FC01EB018081833020F0843011F0853050
:1039600039F48881833030F0843021F0853011F0D3
:103970000E948339CF010E94AD177B018C01CE01DB
:103980000E94AD179B01AC01C801B7010E94193C10
:103990000E94EB14DF91CF911F910F91FF90EF9058
:1039A0000895EF92FF920F931F93CF93DF93FC0143
:1039B000EB018081833020F0843011F0853039F4C0
:1039C0008881833030F0843021F0853011F00E94FE
:1039D0008339CF010E94AD177B018C01CE010E947B
:1039E000AD179B01AC01C801B7010E94143A0E94B7
:1039F000EB14DF91CF911F910F91FF90EF900895FD
:103A0000EF92FF920F931F930E94143A7B018C0157
:103A100020E030E040E050E00E94103AA801970119
:103A20005F77882334F4CA01B9010E94EA3A9058BA
:103A300004C0CA01B9010E94EA3A0E947C3A9B0183
:103A4000AC01CA011F910F91FF90EF9008958F92E2
:103A50009F92AF92BF92CF92DF92EF92FF920F931D
:103A60001F93CF93DF93FC01EB014A0190819330C8
:103A700020F0943011F0953059F48881833020F093
:103A8000843011F0853021F4992311F4882311F04A
:103A90000E948339CF010E94AD170E947C3A88278B
:103AA00077FD8095982F0E94AF3A5B016C01CE01A3
:103AB0000E94AD170E947C3A882777FD8095982F49
:103AC0000E94AF3A7B018C01C601B501A8019701A4
:103AD0000E94143A0E94EA3A0E947C3A0E94AF3A4D
:103AE0009B01AC01C801B7010E94B63B9B01AC0130
:103AF000C601B5010E94AB390E947C3ADC01CB01C2
:103B0000B4010E949B22DF91CF911F910F91FF90F2
:103B1000EF90DF90CF90BF90AF909F908F900895DF
:103B20004F925F926F927F928F929F92AF92BF92CD
:103B3000CF92DF92EF92FF920F931F93CF93DF9379
:103B4000FC01EB012A019081933020F0943011F0B8
:103B5000953059F48881833020F0843011F085301D
:103B600021F4992311F4882311F00E948339CF01A5
:103B70000E94AD170E947C3A5B016C01CE010E944D
:103B8000AD170E947C3A7B018C01B501882777FD37
:103B90008095982F0E94AF3A3B014C010027F7FC1B
:103BA0000095102FC801B7010E94AF3A9B01AC01EC
:103BB000C401B3010E94001DA80197010E94703D3D
:103BC000A61AB70AC501B2010E949B22DF91CF91CC
:103BD0001F910F91FF90EF90DF90CF90BF90AF902B
:103BE0009F908F907F906F905F904F9008958F92ED
:103BF0009F92AF92BF92CF92DF92EF92FF920F937C
:103C00001F93CF93DF93FC01EB014A019081933026
:103C100020F0943011F0953059F48881833020F0F1
:103C2000843011F0853021F4992311F4882311F0A8
:103C30000E948339CF010E94AD177B018C01CE0118
:103C40000E94AD175B016C01C801B7010E947C3A6C
:103C5000882777FD8095982F0E94AF3A7B018C01D1
:103C6000C601B5010E947C3A882777FD8095982F80
:103C70000E94AF3A9B01AC01C801B7010E94001D30
:103C8000DC01CB01B4010E949B22DF91CF911F91F7
:103C90000F91FF90EF90DF90CF90BF90AF909F90EB
:103CA0008F900895AF92BF92CF92DF92EF92FF92E2
:103CB0000F931F93CF93DF93FC01EB015A01C08058
:103CC00082E08C1530F484E0C81619F085E0C8163F
:103CD00051F4D88082E08D1540F484E0D81629F0A4
:103CE00085E0D81611F00E948339CF010E94AD17EC
:103CF0007B018C01CE010E94AD179B01AC0182E0DB
:103D00008C1570F08D1560F0C801B7010E94B63BAC
:103D10000E947C3ADC01CB01B5010E949B2207C0C6
:103D2000C801B7010E94B63BA5010E948022DF9125
:103D3000CF911F910F91FF90EF90DF90CF90BF90A8
:103D4000AF900895AF92BF92CF92DF92EF92FF9221
:103D50000F931F93CF93DF93FC01EB015A01C080B7
:103D600082E08C1530F484E0C81619F085E0C8169E
:103D700051F4D88082E08D1540F484E0D81629F003
:103D800085E0D81611F00E948339CF010E94AD174B
:103D90007B018C01CE010E94AD179B01AC0182E03A
:103DA0008C1570F08D1560F0C801B7010E94AB3919
:103DB0000E947C3ADC01CB01B5010E949B2207C026
:103DC000C801B7010E94AB39A5010E948022DF9192
:103DD000CF911F910F91FF90EF90DF90CF90BF9008
:103DE000AF900895AF92BF92CF92DF92EF92FF9281
:103DF0000F931F93CF93DF93FC01EB015A01C08017
:103E000082E08C1530F484E0C81619F085E0C816FD
:103E100051F4D88082E08D1540F484E0D81629F062
:103E200085E0D81611F00E948339CF010E94AD17AA
:103E30007B018C01CE010E94AD179B01AC0182E099
:103E40008C1570F08D1560F0C801B7010E94AC3977
:103E50000E947C3ADC01CB01B5010E949B2207C085
:103E6000C801B7010E94AC39A5010E948022DF91F0
:103E7000CF911F910F91FF90EF90DF90CF90BF9067
:103E8000AF900895CF93DF93FC01EB0180818430E4
:103E900011F00E94833963817481858196810E942B
:103EA000EA3A0E947C3ADC01CB01BE010E949B22CF
:103EB000DF91CF910895FC01AB018081833030F018
:103EC000843079F08530B1F00E9483398381948108
:103ED00097FF03C0909581959F4FBA010E949B2246
:103EE00007C063817481858196819F770E948022BB
:103EF0009C0102C020E030E0C9010895FC01AB0143
:103F00008081833030F0843061F0853099F00E94F8
:103F1000833983819481909581959F4F0E949B2244
:103F200007C0638174818581968190580E948022A8
:103F30009C0102C020E030E0C9010895AF92BF9219
:103F4000CF92DF92EF92FF920F931F93CF93DF9365
:103F5000FC01EB019081933020F0943011F095300A
:103F600059F48881833020F0843011F0853021F4B9
:103F7000992311F4882311F00E948339CF010E9404
:103F8000AD170E947C3A882777FD8095982F0E9474
:103F9000AF3A5B016C01CE010E94AD170E947C3AE2
:103FA000882777FD8095982F0E94AF3A7B018C017E
:103FB000C601B501A80197010E94143A0E94EA3A8D
:103FC0000E947C3A0E94AF3A9B01AC01C801B70144
:103FD0000E94B63B9B01AC01C601B5010E94AB3902
:103FE0000E947C3ADC01CB010E940615DF91CF9143
:103FF0001F910F91FF90EF90DF90CF90BF90AF9007
:1040000008956F927F928F929F92AF92BF92CF92BC
:10401000DF92EF92FF920F931F93CF93DF93FC01F8
:10402000EB019081933020F0943011F0953059F4E9
:104030008881833020F0843011F0853021F4992379
:1040400011F4882311F00E948339CF010E94AD172B
:104050000E947C3A5B016C01CE010E94AD170E9468
:104060007C3A7B018C01B501882777FD8095982FDC
:104070000E94AF3A3B014C010027F7FC0095102F3E
:10408000C801B7010E94AF3A9B01AC01C401B30162
:104090000E94001DA80197010E94703DA61AB70A50
:1040A000C5010E940615DF91CF911F910F91FF90DE
:1040B000EF90DF90CF90BF90AF909F908F907F90C8
:1040C0006F900895AF92BF92CF92DF92EF92FF92DE
:1040D0000F931F93CF93DF93FC01EB0190819330FB
:1040E00020F0943011F0953059F48881833020F01D
:1040F000843011F0853021F4992311F4882311F0D4
:104100000E948339CF010E94AD177B018C01CE0143
:104110000E94AD175B016C01C801B7010E947C3A97
:10412000882777FD8095982F0E94AF3A7B018C01FC
:10413000C601B5010E947C3A882777FD8095982FAB
:104140000E94AF3A9B01AC01C801B7010E94001D5B
:10415000DC01CB010E940615DF91CF911F910F91D9
:10416000FF90EF90DF90CF90BF90AF900895CF92E7
:10417000DF92EF92FF920F931F93CF93DF93FC0197
:10418000EB01C08082E08C1530F484E0C81619F091
:1041900085E0C81651F4D88082E08D1540F484E0A3
:1041A000D81629F085E0D81611F00E948339CF0186
:1041B0000E94AD177B018C01CE010E94AD179B01BF
:1041C000AC0182E08C1568F08D1558F0C801B7017C
:1041D0000E94B63B0E947C3ADC01CB010E9406158E
:1041E00006C0C801B7010E94B63B0E94EB14DF91E4
:1041F000CF911F910F91FF90EF90DF90CF90089596
:10420000CF92DF92EF92FF920F931F93CF93DF93A2
:10421000FC01EB01C08082E08C1530F484E0C8160C
:1042200019F085E0C81651F4D88082E08D1540F46D
:1042300084E0D81629F085E0D81611F00E94833961
:10424000CF010E94AD177B018C01CE010E94AD17FA
:104250009B01AC0182E08C1568F08D1558F0C80107
:10426000B7010E94AB390E947C3ADC01CB010E946D
:10427000061506C0C801B7010E94AB390E94EB14B5
:10428000DF91CF911F910F91FF90EF90DF90CF9032
:104290000895CF92DF92EF92FF920F931F93CF93E7
:1042A000DF93FC01EB01C08082E08C1530F484E0E8
:1042B000C81619F085E0C81651F4D88082E08D1533
:1042C00040F484E0D81629F085E0D81611F00E9459
:1042D0008339CF010E94AD177B018C01CE010E9472
:1042E000AD179B01AC0182E08C1568F08D1558F07C
:1042F000C801B7010E94AC390E947C3ADC01CB01B5
:104300000E94061506C0C801B7010E94AC390E9480
:10431000EB14DF91CF911F910F91FF90EF90DF9001
:10432000CF900895FC018081843011F00E94833980
:1043300063817481858196810E94EA3A0E947C3A69
:10434000DC01CB010E9406150895FC0180818330B9
:1043500030F0843071F08530A9F00E948339838178
:10436000948197FF03C0909581959F4F0E940615F9
:1043700007C063817481858196819F770E94EB14C9
:104380009C0102C020E030E0C9010895FC01808159
:10439000833030F0843061F0853099F00E948339A9
:1043A00083819481909581959F4F0E94061507C047
:1043B000638174818581968190580E94EB149C01E1
:1043C00002C020E030E0C9010895CF92DF92EF9261
:1043D000FF920F931F93CF93DF937C01EB016A0150
:1043E000890188E090E00E94A237292FE82FF92F59
:1043F000309711F40E948339F382E28211830083A3
:10440000D782C682D583C483888199810196998396
:1044100088838E2F922FDF91CF911F910F91FF9064
:10442000EF90DF90CF9008950F931F93FC010091C0
:10443000160310911703D8018D939C9372836183A7
:1044400084E090E00E94A237F80182839383E09198
:104450001603F09117030280F381E02D309711F4D9
:104460000E948339F0931703E093160311821082A0
:10447000138212821F910F910895AF92BF92CF9233
:10448000DF92EF92FF920F931F93CF93DF93A82EAB
:104490007A018B01690187E090E00E94A237B92E72
:1044A000C82FD92F209711F40E948339A882EB825C
:1044B000FC820D831E83CE01B6010E9414228C2F34
:1044C0009B2DDF91CF911F910F91FF90EF90DF9087
:1044D000CF90BF90AF9008959B0140E050E060E026
:1044E00070E0AC0189E00E943D2208959B0140E00C
:1044F00050E060E070E0482F86E00E943D22089581
:10450000EF92FF920F931F937B018C019A0184E03D
:10451000B801A7010E943D221F910F91FF90EF90DB
:1045200008959B0140E050E060E070E0482F83E098
:104530000E943D2208959B0140E050E060E070E061
:10454000AC0180E00E943D22089584E090E00E944A
:10455000A237FC019093150380931403009711F484
:104560000E94833911821082138212829093170362
:10457000809316030895AF92BF92CF92DF92EF928D
:10458000FF920F931F93CF93DF93FC019B01009742
:1045900019F4AA24BB24B1C043815481658176817A
:1045A00080810E943D225C01DC018C91883039F0D1
:1045B0008B3009F490C0873009F09FC043C0F501EB
:1045C0000381D48084E090E00E94A237EC01009740
:1045D00009F45DC0E02EFD2CF70180819181A2815C
:1045E000B38188839983AA83BB838A819B81880F47
:1045F000991F0E94A23799838883009709F447C0C6
:10460000CC24DD2416C0C601880F991F08811981AA
:10461000080F191FD701ED91FC91E80FF91F808158
:1046200091810E940F15F801918380830894C11C29
:10463000D11CD70112968D919C911397C816D9065B
:1046400014F345C0D50113960C9113971496DC9082
:1046500084E090E00E94A237EC010097C1F0E02EC8
:10466000FD2CF70180819181A281B3818883998398
:10467000AA83BB838A819B81880F991F0E94A237DE
:1046800099838883009719F0CC24DD2418C00E94F8
:104690008339C601880F991F08811981080F191FD6
:1046A000D701ED91FC91E80FF91F808191810E9463
:1046B0000F15F801918380830894C11CD11CD70188
:1046C00012968D919C911397C816D90614F3F50193
:1046D000D483C38312C0D5011396ED91FC91149736
:1046E00064817581468157812081318182819381E6
:1046F0000E94E521F50194838383C501DF91CF9169
:104700001F910F91FF90EF90DF90CF90BF90AF90EF
:1047100008950F931F93CF93DF938B010E9452371D
:10472000AC01FC01C5E0D5E109C0CE01880F991F9D
:10473000880F991F820F931FC80FD91F8191282FAF
:1047400030E02115310589F7CA010E944F3840E059
:1047500050E060E070E0AE018AE098010E943D22E6
:10476000DF91CF911F910F910895CF93DF93DC01DB
:1047700020911403309115032115310561F1F901E0
:10478000C0E0D0E006C082819381EF01009719F16B
:10479000FC01EA17FB07B9F7A217B307A9F41296B1
:1047A0002D913C911397309315032093140380911E
:1047B0001603909117038A179B0721F43093170370
:1047C00020931603CD0105C0828193819B838A8348
:1047D000CF010E944F38DF91CF9108959C01409105
:1047E0001403509115034115510581F1FA01A0E020
:1047F000B0E006C082819381DF01009739F1FC01AE
:104800008081918182179307A9F73097F9F022816F
:104810003381E417F50799F43093150320931403BB
:1048200080911603909117038E179F0721F4309300
:10483000170320931603CF010E944F380895139653
:104840003C932E931297CF010E944F380895AF9258
:10485000BF92CF92DF92EF92FF920F931F93DF935D
:10486000CF9300D000D000D0CDB7DEB7E0911403D5
:10487000F0911503FA83E98380819181892B09F0F6
:1048800044C082819381892B09F03FC059C0F9014E
:10489000828193819C838B83A081B181BE83AD8310
:1048A0001196ED91FC911297309741F4C9010E9445
:1048B000B5238D819E810E94A01222C080819181AA
:1048C0008A179B07E9F0EE15FF0518F00E171F0772
:1048D00070F4EA15FB0518F0EE16FF0640F4E01739
:1048E000F10718F0CE16DF0610F411821082F901DC
:1048F000808191810E94A01289819A810E94B523B2
:104900008B819C819A83898311C0E3E0EE2EF12C88
:10491000EC0EFD1E5E010894A11CB11C8E010B5F04
:104920001F4F77E0C72ED12CCC0EDD1E29813A8196
:1049300080911603909117032817390709F0A7CF24
:1049400026960FB6F894DEBF0FBECDBFCF91DF9194
:104950001F910F91FF90EF90DF90CF90BF90AF909D
:1049600008950F931F93CF93DF93C0911403D091B9
:1049700015030FC01A810B8188819981009729F056
:104980000E94A012CE010E94B523812F902F9C017E
:10499000E9018091160390911703C817D90751F7C1
:1049A000CE010E944F3810921503109214031092FA
:1049B000170310921603DF91CF911F910F91089565
:1049C0000F931F93FC01DB018081883099F48C9157
:1049D000833080F413966D917C91149723818481A8
:1049E000161617063CF4E22FF82F82819381861762
:1049F000970714F40E94833961507040660F771F47
:104A000000811181060F171FCA010E940F15F801BE
:104A1000918380831F910F910895FC01DB018081B8
:104A2000883099F48C91833080F413966D917C9149
:104A3000149723818481161617063CF4E22FF82F71
:104A4000828193818617970714F40E9483396150FD
:104A50007040660F771F0190F081E02DE60FF71F81
:104A6000808191810E940F150895FC01808188301A
:104A700011F00E9483390380F481E02D0190F081D0
:104A8000E02D808191810E940F150895FC01DB01CA
:104A90008081883099F48C91833080F413966D91E5
:104AA0007C91149723818481161617063CF4E22F1B
:104AB000F82F828193818617970714F40E94833917
:104AC00061507040660F771F0190F081E02DE60F76
:104AD000F71F80819181BA010E94BB220895FC01D9
:104AE0008081883011F00E9483390380F481E02DA9
:104AF0000190F081E02D808191810E94BB22089578
:104B00008F929F92AF92BF92CF92DF92EF92FF92DD
:104B10000F931F93CF93DF93FC01AB01808188300B
:104B200011F00E948339C380D480D60112968D91F2
:104B30009C91139768E00E9408175C01FC01838038
:104B40009480D6011296CD91DC9113972197CC0FCA
:104B5000DD1FEE24FF2418C0C701880F991FF40140
:104B600000811181080F191FD601ED91FC91EC0F06
:104B7000FD1F808191810E940F15F8019183808330
:104B80000894E11CF11C2297D60112968D919C91FC
:104B90001397E816F90604F3C501DF91CF911F9131
:104BA0000F91FF90EF90DF90CF90BF90AF909F90CC
:104BB0008F9008958F929F92AF92BF92CF92DF9283
:104BC000EF92FF920F931F93CF93DF93FC01DB01D2
:104BD0008081883019F48C91883011F00E948339DB
:104BE000E380F4801396AD90BC901497D501129693
:104BF0008D919C911397F70122813381820F931F2E
:104C000068E00E9408176C01DC0113968D909C905F
:104C10001497C0E0D0E015C0CE01880F991FF401B1
:104C200000811181080F191FD701ED91FC91E80F48
:104C3000F91F808191810E940F15F8019183808373
:104C40002196D70112968D919C911397C817D90779
:104C50001CF37C01EE0CFF1CC0E0D0E019C0F40195
:104C6000008111810E0D1F1DCE01880F991FD501E6
:104C7000ED91FC91E80FF91F808191810E940F1541
:104C8000F80191838083219682E090E0E80EF91E7E
:104C9000D50112968D919C911397C817D907FCF2F4
:104CA000C601DF91CF911F910F91FF90EF90DF90A0
:104CB000CF90BF90AF909F908F9008958F929F92CA
:104CC000AF92BF92CF92DF92EF92FF920F931F931A
:104CD000CF93DF93FC01AB018081883011F00E94FB
:104CE0008339A380B480D50112968D919C9113973E
:104CF000019768E00E9408176C01FC018380948092
:104D0000C1E0D0E0EE24FF2419C0D4010D911C9124
:104D10000E0D1F1DCE01880F991FD501ED91FC913D
:104D2000E80FF91F808191810E940F15F80191838E
:104D30008083219682E090E0E80EF91ED50112965C
:104D40008D919C911397C817D907FCF2C601DF918A
:104D5000CF911F910F91FF90EF90DF90CF90BF9078
:104D6000AF909F908F900895FC018081883011F062
:104D70000E9483390380F481E02D828193810E9417
:104D800006150895AF92BF92CF92DF92EF92FF92F5
:104D90000F931F93CF93DF93FC015B0180818830D9
:104DA00081F4C380D480F6018281938162E070E057
:104DB0000E9486378C01009721F07C01C0E0D0E092
:104DC0000AC00E9483392196CE010E940615F70180
:104DD000819391937F01F60182819381C817D9074E
:104DE00094F3B801A5010E949433DF91CF911F91F4
:104DF0000F91FF90EF90DF90CF90BF90AF9008950C
:104E0000FC01AB018081883011F00E94833903805E
:104E1000F481E02D60817181828193810E949433BD
:104E20000895CF92DF92EF92FF920F931F93CF934B
:104E3000DF93FC018081883081F4C380D480F60147
:104E40008281938162E070E00E9486378C01009736
:104E500021F07C01C0E0D0E00AC00E948339219695
:104E6000CE010E940615F701819391937F01F6010F
:104E700082819381C817D90794F3B8010E94A72CA7
:104E8000DF91CF911F910F91FF90EF90DF90CF9026
:104E90000895FC018081883011F00E9483390380DD
:104EA000F481E02D60817181828193810E94A72C21
:104EB0000895FC018081883011F00E9483390380BD
:104EC000F481E02D828193810E949B2208950F93AB
:104ED0001F93FC0103811481F80162817381660FC5
:104EE000771F808191810E94A738F8019183808388
:104EF000009711F40E9483391F910F9108950F9329
:104F00001F93CF93DF938B01FC01C381D4818A81EE
:104F10009B81029764F08881998168E170E00E942A
:104F2000A73899838883009711F40E9483398A8176
:104F30009B819C01220F331FE881F981E20FF31F4F
:104F40001183008301969B838A83DF91CF911F9108
:104F50000F9108954F925F926F927F928F929F92DE
:104F6000AF92BF92CF92DF92EF92FF920F931F9377
:104F7000DF93CF93CDB7DEB74B885C887D886E8892
:104F80008E01095E1F4F872D962D62E070E00E9412
:104F900086377C010097F1F0272D362DC9015C0181
:104FA000680100E010E025C0F601808191810E9437
:104FB0000F154C010A151B057CF08AE090E0A80E45
:104FC000B91EB501660F771FC7010E94A7387C0183
:104FD000009711F40E948339F801EE0FFF1FEE0DC8
:104FE000FF1D918280820F5F1F4FE2E0F0E0CE0E46
:104FF000DF1E04151505C0F2C801672D762D48E0A7
:1050000097010E942816182F092FC7010E944F38B8
:10501000812F902FCF91DF911F910F91FF90EF90F3
:10502000DF90CF90BF90AF909F908F907F906F90C8
:105030005F904F900895EF92FF920F931F93DF932D
:10504000CF93CDB7DEB769857A850DB71EB7CB0193
:10505000880F991F2DB73EB7281B390B0FB6F89450
:105060003EBF0FBE2DBF2F5F3F4FCE010D96DC011F
:10507000F22EE32EF90120E030E006C08D919D91E3
:10508000819391932F5F3F4F26173707B8F3CB01DA
:1050900068E04F2D5E2D2B853C850E943C170FB696
:1050A000F8941EBF0FBE0DBFCF91DF911F910F91DE
:1050B000FF90EF900895EF92FF920F931F93DF936D
:1050C000CF93CDB7DEB7FE013996619171910DB7DF
:1050D0001EB7CB01880F991F2DB73EB7281B390B80
:1050E0000FB6F8943EBF0FBE2DBF2F5F3F4FDF01BD
:1050F000F22EE32EF90120E030E006C08D919D9163
:10510000819391932F5F3F4F26173707B8F3CB0159
:1051100068E04F2D5E2D0E9495160FB6F8941EBFC5
:105120000FBE0DBFCF91DF911F910F91FF90EF90B8
:105130000895AB0168E00E949516089568E00E940A
:10514000671608958F929F92AF92BF92CF92DF928F
:10515000EF92FF920F931F93CF93DF93FC01808117
:10516000883011F00E948339C380D480D601129612
:105170008D919C91139768E00E9467165C01FC0179
:1051800083809480D6011296CD91DC91139721975C
:10519000CC0FDD1FEE24FF2418C0C701880F991F14
:1051A000F40100811181080F191FD601ED91FC91C6
:1051B000EC0FFD1F808191810E940F15F8019183F2
:1051C00080830894E11CF11C2297D60112968D91E0
:1051D0009C911397E816F90604F3C501DF91CF916E
:1051E0001F910F91FF90EF90DF90CF90BF90AF9005
:1051F0009F908F9008958F929F92AF92BF92CF927F
:10520000DF92EF92FF920F931F93CF93DF93FC01F6
:10521000DB018081883019F48C91883011F00E9474
:105220008339E380F4801396AD90BC901497D50138
:1052300012968D919C911397F70122813381820FF1
:10524000931F68E00E9467166C01DC0113968D9035
:105250009C901497C0E0D0E015C0CE01880F991F34
:10526000F40100811181080F191FD701ED91FC9104
:10527000E80FF91F808191810E940F15F801918339
:1052800080832196D70112968D919C911397C81710
:10529000D9071CF37C01EE0CFF1CC0E0D0E019C064
:1052A000F401008111810E0D1F1DCE01880F991F81
:1052B000D501ED91FC91E80FF91F808191810E9449
:1052C0000F15F80191838083219682E090E0E80E2B
:1052D000F91ED50112968D919C911397C817D90785
:1052E000FCF2C601DF91CF911F910F91FF90EF90DB
:1052F000DF90CF90BF90AF909F908F9008958F9246
:105300009F92AF92BF92CF92DF92EF92FF920F9354
:105310001F93CF93DF93FC018081883011F00E94AE
:105320008339A380B480D50112968D919C911397F7
:10533000019768E00E9467166C01FC0183809480ED
:10534000C1E0D0E0EE24FF2419C0D4010D911C91DE
:105350000E0D1F1DCE01880F991FD501ED91FC91F7
:10536000E80FF91F808191810E940F15F801918348
:105370008083219682E090E0E80EF91ED501129616
:105380008D919C911397C817D907FCF2C601DF9144
:10539000CF911F910F91FF90EF90DF90CF90BF9032
:1053A000AF909F908F900895DC011396ED91FC9142
:1053B000149782819381681779071CF020E030E010
:1053C0000CC0660F771F0190F081E02DE60FF71FEC
:1053D000808191810E940F159C01C9010895FC01F3
:1053E0008081873011F00E9483390380F481E02DA1
:1053F000828193810E949B220895FC0180818730E5
:1054000011F00E9483390380F481E02D8281938121
:105410000E9406150895FC01DB018081873019F494
:105420008C91873011F00E948339CF010E9445147E
:105430000895FC01DB018081873019F48C9187305D
:1054400011F00E948339CF010E94FA140895AF929F
:10545000BF92CF92DF92EF92FF921F93CF93DF9391
:10546000FC016B015A018081873011F00E94833961
:10547000E380F480C0E0D0E010E017C0CE01880FD8
:10548000991FD701ED91FC91E80FF91F808191815F
:10549000B6010E94A61390E0212F30E0822B932BBF
:1054A00010E0892B09F011E02196F70182819381A8
:1054B000C817D9071CF3812FB5010E949122DF91F3
:1054C000CF911F91FF90EF90DF90CF90BF90AF9062
:1054D0000895CF92DF92EF92FF921F93CF93DF93C5
:1054E000FC016B018081873011F00E948339E380D9
:1054F000F480C0E0D0E010E017C0CE01880F991F03
:10550000D701ED91FC91E80FF91F80819181B601DF
:105510000E94A61390E0212F30E0822B932B10E005
:10552000892B09F011E02196F70182819381C81738
:10553000D9071CF3812F0E94F114DF91CF911F91A5
:10554000FF90EF90DF90CF900895CF92DF92EF928F
:10555000FF920F931F93CF93DF93FC017B016A01AE
:105560008081873021F4DB018C91873011F00E941B
:10557000833903811481DB011396ED91FC9114971B
:10558000D80112962D913C911397828193818217B5
:105590009307BCF0C0E0D0E01AC0CE01880F991F7D
:1055A000D801ED91FC91E80FF91F60817181C7016D
:1055B0000E94692AFC018381882329F4CF010E947B
:1055C0004F3880E00BC0CF010E944F382196F80180
:1055D00082819381C817D90704F381E0B6010E9444
:1055E0009122DF91CF911F910F91FF90EF90DF906B
:1055F000CF900895CF93DF93EC018881873021F419
:10560000FB018081873011F00E9483398B819C815E
:10561000FB01A381B481FC012281338112968D911B
:105620009C911397281739072CF080E0BA010E944B
:10563000912203C0CE010E94A52ADF91CF91089547
:10564000EF92FF920F931F93CF93DF93FC017B01A7
:105650008081873021F4DB018C91873011F00E942A
:10566000833903811481DB011396ED91FC9114972A
:10567000D80112962D913C911397828193818217C4
:105680009307BCF0C0E0D0E01AC0CE01880F991F8C
:10569000D801ED91FC91E80FF91F60817181C7017C
:1056A0000E94692AFC018381882329F4CF010E948A
:1056B0004F3880E00BC0CF010E944F382196F8018F
:1056C00082819381C817D90704F381E00E94F11405
:1056D000DF91CF911F910F91FF90EF900895EF927E
:1056E000FF920F931F93CF93DF938C01EB01FC018B
:1056F0008081873019F48881873011F00E948339C6
:10570000C8010E94202B7C01CE01B8010E94202BF1
:105710008C01F7018381882319F4C0E0D0E009C02F
:1057200090E0F8018381882309F491E081E09827D3
:10573000C92FC7010E941E13C8010E941E138C2F7F
:105740000E94F114DF91CF911F910F91FF90EF9084
:105750000895CF93DF93EC018881873021F4FB011A
:105760008081873011F00E9483398B819C81FB01FD
:10577000A381B481FC012281338112968D919C9189
:1057800013972817390724F080E00E94F11403C012
:10579000CE010E94202BDF91CF9108951F93CF93CC
:1057A000DF93FC01EA018081873011F00E94833988
:1057B000CF010E94692AFC0113810E941E1381E01F
:1057C0008127BE010E949122DF91CF911F91089500
:1057D0001F93FC018081873011F00E948339CF0133
:1057E0000E94692AFC0113810E941E1381E0812717
:1057F0000E94F1141F9108958F929F92AF92BF92D1
:10580000DF92EF92FF920F931F93CF93DF935C0190
:105810004B017A018C01C0E0D0E0DD2413C0F80117
:1058200080819181B7010E94A61390E02D2D30E078
:10583000822B932BDD24892B11F0DD24D394219628
:105840000E5F1F4FF40180819181C817D9073CF387
:10585000DD2061F4FC01EE0FFF1FEA0DFB1DF1825C
:10586000E0820196F4019183808303C0C7010E9406
:105870001E13DF91CF911F910F91FF90EF90DF905A
:10588000BF90AF909F908F900895DC011396ED919B
:10589000FC91149782819381681779071CF020E0AE
:1058A00030E00DC0660F771F0190F081E02DE60F0C
:1058B000F71F80819181BA010E94BB229C01C9011E
:1058C00008950F931F93FC0103811481F8016281F5
:1058D0007381660F771F808191810E94A738F8013C
:1058E00091838083009711F40E9483391F910F9157
:1058F0000895EF92FF920F931F93CF93DF937B0155
:10590000FC0103811481F801628173816F5F7F4F15
:10591000660F771F808191810E94A738EC01F80102
:1059200091838083009711F40E948339C7010E94FC
:105930000F15AC010E5F1F4FCE01B8010E94FC2B6A
:10594000DF91CF911F910F91FF90EF9008954F92AB
:105950005F926F927F928F929F92AF92BF92CF92FF
:10596000DF92EF92FF920F931F93DF93CF9300D0BC
:10597000CDB7DEB73C01162F072F1A82198282E0BD
:1059800090E062E070E00E9486377C01009719F198
:10599000812F902F9C015901CC24DD2402E010E0DE
:1059A0002E010894411C511C24C0F5018081918175
:1059B0000E940F154C0189819A81801791076CF024
:1059C000065F1F4FB801660F771FC7010E94A738F7
:1059D0007C01009711F40E948339C701B201A40130
:1059E0000E94FC2B0894C11CD11C82E090E0A80E00
:1059F000B91EC614D704C8F289819A8167E0A7014D
:105A00000E949516B82EA92E670100E010E008C08C
:105A1000F601819191916F010E941E130F5F1F4F3C
:105A200089819A81081719079CF3C7010E944F3892
:105A30008B2D9A2D0F900F90CF91DF911F910F9189
:105A4000FF90EF90DF90CF90BF90AF909F908F909E
:105A50007F906F905F904F9008956F927F928F929A
:105A60009F92AF92BF92CF92DF92EF92FF920F93ED
:105A70001F93CF93DF93FC01DB0180818730F9F422
:105A80008C918730E1F4A380B48013966D907C9064
:105A90001497D30112968D919C911397F501228151
:105AA0003381820F931F880F991F0E94A2377C01B8
:105AB000009729F04C016C01C0E0D0E013C00E94B7
:105AC0008339CE01880F991FD501ED91FC91E80F24
:105AD000F91F808191810E940F15F60181939193A6
